{
    "contractName": "CD",
    "abi": [
        {
            "inputs": [],
            "name": "getchainID",
            "outputs": [
                {
                    "internalType": "uint256",
                    "name": "",
                    "type": "uint256"
                }
            ],
            "stateMutability": "view",
            "type": "function"
        },
        {
            "inputs": [
                {
                    "internalType": "uint256",
                    "name": "x",
                    "type": "uint256"
                }
            ],
            "name": "setChainID",
            "outputs": [],
            "stateMutability": "nonpayable",
            "type": "function"
        }
    ],
    "bytecode": "6080604052348015600f57600080fd5b5060ac8061001e6000396000f3fe6080604052348015600f57600080fd5b506004361060325760003560e01c8063bff0af6a146037578063ed8d47e614604c575b600080fd5b60005460405190815260200160405180910390f35b605c6057366004605e565b600055565b005b600060208284031215606f57600080fd5b503591905056fea2646970667358221220b5dc5a4898de9c96767cd8fd0a0636b74e86f575500f9f88f08778a08d32a31064736f6c634300080b0033",
    "sourcePath": "/home/imentus/iMentus-Projects/dexit/dexit-blockchain-network/contract/CD.sol",
    "compiler": {
        "name": "solc",
        "version": "0.8.11+commit.d7f03943"
    },
    "functionHashes": {
        "getchainID()": "bff0af6a",
        "setChainID(uint256)": "ed8d47e6"
    },
    "gasEstimates": {
        "creation": {
            "codeDepositCost": "34400",
            "executionCost": "87",
            "totalCost": "34487"
        },
        "external": {
            "getchainID()": "2246",
            "setChainID(uint256)": "22312"
        }
    }
}